:100000000C9434000C9446000C9446000C9446006A
:100010000C9446000C9446000C9446000C94460048
:100020000C9446000C9446000C9446000C94460038
:100030000C9446000C9446000C94AA000C944600C4
:100040000C9446000C9446000C9446000C94460018
:100050000C9446000C9446000C9446000C94460008
:100060000C9446000C94460011241FBECFEFD8E03C
:10007000DEBFCDBF21E0A0E0B1E001C01D92AC30F9
:10008000B207E1F70E94EC000C9406010C9400000A
:10009000249A52985A9A089589B18695869591E046
:1000A0008927817090E00895892B11F02C9A08958A
:1000B0002C980895CF93DF93EC010E94CD00462F3A
:1000C000572FBC0180910401909105018C179D0769
:1000D00069F0409300015093010160930201709315
:1000E0000301D0930501C093040111C08091000168
:1000F00090910101A0910201B0910301481B590B9D
:100100006A0B7B0B433351056105710550F3CE013A
:10011000DF91CF91089581E090E020910601309128
:100120000701232B11F090E080E09093070180936A
:1001300006010C94540084B5826084BD89EF87BDAC
:1001400085B5836085BDEEE6F0E0808182608083C6
:10015000789408951F921FB61F9211248F939F9336
:10016000AF93BF938091080190910901A0910A017A
:10017000B0910B010196A11DB11D809308019093D0
:100180000901A0930A01B0930B01BF91AF919F9118
:100190008F911F901FBE1F901895CF93DF9300D0B3
:1001A00000D0CDB7DEB7F894809108019091090195
:1001B000A0910A01B0910B0189839A83AB83BC8320
:1001C000789469817A818B819C810F900F900F9038
:1001D0000F90DF91CF9108950E9448000E949B00EC
:1001E00001E010E00E944C000E945A00EC01892BB3
:1001F00029F40130110511F40E948B008FE39CE972
:100200000197F1F700C000008E01ECCFF894FFCF0A
:00000001FF
